{
  "contractName": "myContract",
  "abi": [
    {
      "inputs": [],
      "payable": false,
      "stateMutability": "nonpayable",
      "type": "constructor"
    },
    {
      "constant": true,
      "inputs": [],
      "name": "getValeur",
      "outputs": [
        {
          "internalType": "uint256",
          "name": "",
          "type": "uint256"
        }
      ],
      "payable": false,
      "stateMutability": "view",
      "type": "function"
    },
    {
      "constant": false,
      "inputs": [
        {
          "internalType": "uint256",
          "name": "_val",
          "type": "uint256"
        }
      ],
      "name": "setValeur",
      "outputs": [],
      "payable": false,
      "stateMutability": "nonpayable",
      "type": "function"
    }
  ],
  "bytecode": "0x608060405234801561001057600080fd5b5060c68061001f6000396000f3fe6080604052348015600f57600080fd5b506004361060325760003560e01c8063378d7a6e1460375780637f00b062146053575b600080fd5b603d607e565b6040518082815260200191505060405180910390f35b607c60048036036020811015606757600080fd5b81019080803590602001909291905050506087565b005b60008054905090565b806000819055505056fea265627a7a72315820bb2df9b4eff7c0085b0b5f7ccd09892a27ff001499e8e8bced3c7c0fa227b3f164736f6c63430005100032",
  "source": "pragma solidity ^0.5.0;\r\n\r\ncontract myContract {\r\n     uint valeur;\r\n\r\n  constructor() public {\r\n  }\r\n\r\n\r\n    function getValeur() external view returns(uint) {\r\n        return valeur;\r\n    }\r\n\r\n    function setValeur(uint _val) external  {\r\n        valeur = _val;\r\n    }\r\n}",
  "sourcePath": "C:/Users/bazinfo/Desktop/besutest/contracts/myContract.sol",
  "compiler": {
    "name": "solc",
    "version": "0.5.16+commit.9c3226ce.Emscripten.clang"
  },
  "schemaVersion": "3.3.4",
  "updatedAt": "2021-03-29T09:21:25.846Z",
  "networkType": "ethereum",
  "devdoc": {
    "methods": {}
  },
  "userdoc": {
    "methods": {}
  }
}